:020000040800F2
:1000000020200020050100080D1F0008E51500084C
:10001000991A00086D0E0008092B00080000000066
:100020000000000000000000000000008123000824
:10003000AD0F00080000000095210008D924000839
:100040001F0100081F0100081F0100081F01000810
:100050001F0100081F0100081F0100081F01000800
:100060001F0100081F0100081F0100081F010008F0
:100070001F0100081F0100081F0100081F010008E0
:100080001F0100081F0100081F0100081F010008D0
:100090001F0100081F0100081F0100081F010008C0
:1000A0001F0100081F0100081F0100081F010008B0
:1000B000392500081F0100081F0100081F01000862
:1000C0001F0100081F0100081F0100081F01000890
:1000D0001F0100081F010008912900081F010008E6
:1000E0001F0100081F0100081F010008DFF810D0E1
:1000F00000F0B8FB0048004731350008AFF300803E
:10010000202000200648804706480047FEE7FEE71B
:10011000FEE7FEE7FEE7FEE7FEE7FEE7FEE7FEE7B7
:10012000E9240008ED00000840EA01039B0703D022
:1001300009E008C9121F08C0042AFAD203E011F826
:10014000013B00F8013B521EF9D27047D2B201E0E8
:1001500000F8012B491EFBD270470022F6E710B5CC
:1001600013460A4604461946FFF7F0FF204610BD25
:1001700030B505462A460B4612F8010B13F8014B21
:1001800008B1A042F8D01CB1002802D06D1CF1E7E4
:10019000284630BD421C10F8011B0029FBD1801AF3
:1001A0007047F0B480EA0102D40F4200B2EB410F75
:1001B00002D20246084611464A0042D0C30DDDB2C3
:1001C000C1F3C752AD1A202D35DAC1F3160141F43F
:1001D000000204B15242C5F1200602FA06F12A419A
:1001E0001044B3EBD05F23D0C4B1012DA0EBC350BA
:1001F00009DCF0BC4FF0004202EAC352DBB200F56A
:10020000000000F049B9400000F1807000EBC350DD
:10021000A0F1807040EAD170490009E0490841EA44
:10022000C071A0EBC35000F50000400800EBC350C4
:10023000F0BC00F028B96142012202EB4101001B31
:10024000F6E7F0BC704781F00041AAE780F000407B
:10025000A7E780EA010210B502F00043400022D077
:100260004A001FD0010E01EB1261C0F35600C2F329
:10027000560240F4000042F40002A0FB02200004F9
:100280007F39140400D0401C50EA124001D44000D1
:10029000491EC2B20C0604EBD010401C4008802A54
:1002A00002D003E0002010BD20F00100002900DA98
:1002B0000020184310BD30B480EA010202F000456E
:1002C00030F0004221F0004013D090B1C30DD40DA6
:1002D000C2F31601C0F31600E41A41F4000140F421
:1002E00000027D34914201D3641C00E04900002CDF
:1002F00002DA30BC002070474FF400000023914226
:1003000001D3891A034340084FEA4101F7D151B1A3
:10031000914202D14FF0004105E002D24FF00101BD
:1003200001E06FF0010103EBC450284430BC00F041
:10033000AAB8C10F80EAE0700844CA0796230021DA
:1003400000F0AAB896230022114600F0A5B800F0EC
:10035000004220F00040C10DC0F3160040F4000040
:100360007F2901DA00207047962903DCC1F196014C
:10037000C84001E096398840002AF4D040427047D6
:1003800020F00040C10DC0F3160040F400007F29AA
:1003900001DA00207047962903DCC1F19601C840BC
:1003A000704796398840704700F0004230F00040B6
:1003B0000AD0C10D01F56071C0F3160042EA015187
:1003C000C2084007114370470020014670470000F3
:1003D000002801DBC0F10040002901DBC1F1004130
:1003E00081427047002801DBC0F10040002901DB99
:1003F000C1F100418842704730B50B4601460020EC
:100400002022012409E021FA02F59D4205D303FAD6
:1004100002F5491B04FA02F52844151EA2F1010257
:10042000F1DC30BD2DE9F05F0546002092469B4689
:1004300088460646814640241BE0284641464746FA
:10044000224600F030FA53465A46C01A914110D362
:1004500011461846224600F017FA2D1A67EB0108DC
:100460004F4622460120002100F00EFA17EB00094A
:100470004E41201EA4F10104DFDC484631462A46E5
:100480004346BDE8F09F0029A8BF7047401C4900C3
:1004900008BF20F00100704710B4B0FA80FC00FAE9
:1004A0000CF050EA010404BF10BC704749B1CCF114
:1004B000200421FA04F411FA0CF118BF01212143A0
:1004C0000843A3EB0C01CB1D4FEA00614FEA10205B
:1004D00042BF002010BC704700EBC35010440029FD
:1004E000A4BF10BC7047401C490008BF20F00100A9
:1004F00010BC70472DE9FE4F804681EA0300C00F13
:100500000C46009021F0004123F00045B8EB0200BA
:10051000A94105D24046214690461C460B4602465C
:1005200023F00040104347D0270DC7F30A00C3F360
:100530000A510290401A019040286BDAC3F313006D
:1005400040F4801B0098924620B10023D2EB030AAE
:1005500063EB0B0B01985946C0F14002504600F086
:1005600093F906460D4650465946019A00F0ABF9FC
:1005700010EB08006141002487EA115284EAE77316
:100580001A4340D0009A62B3019A012A4FEA0752F7
:1005900015DC001B61EB02014FF0004202EA07523A
:1005A000CDE90042001C41F5801132462B4600F097
:1005B000ABF903B0BDE8F08F40462146F9E7001BD8
:1005C00061EB0201001C41F5801300185B4120180B
:1005D000A2F5001747EB030140EAD570B6196D414B
:1005E00011E06D084FEA360645EAC0754FEA07523A
:1005F000001B61EB0201001C41F5801149084FEA24
:1006000030000019514132462B4603B0BDE8F04F8F
:1006100000F06BB90098012240000023D0EB0202E9
:1006200063EBE073009821464FEAE074B8EB0000FA
:1006300061EB0401E9E783F000435BE781F00041EF
:1006400058E72DE9FE4F81EA030404F0004421F04D
:10065000004100944FF0000B23F0004350EA0104E6
:100660005ED052EA03045BD0C3F30A54C1F30A55C7
:100670002C44A4F2F3340194A0FB0254C1F31301FF
:1006800041F48011C3F3130343F4801301FB0244CC
:1006900000FB034E840A970A44EA815447EA8357D1
:1006A000A4FB076802958D0A05FB07854FEA932C8A
:1006B00004FB0C542705029D4FEA065847EA1637FB
:1006C000B5EB08056EEB070C870E920E47EA811713
:1006D00042EA8312A7FB0201B6EB0B0164EB0004B4
:1006E0002B0D43EA0C335E1844EB1C50DA4651469E
:1006F000E7FB0201C5F313044FEA0B3343EA14533B
:100700004FEA0432019C43EA0603A4F10C0402946C
:10071000009CCDE900B400F0F7F803B0BDE8F08F1D
:1007200000200146F9E72DE9F04D81EA030404F0C9
:10073000004B21F0004514464FF0000A23F0004121
:1007400050EA050220D054EA01021DD0C5F30A5731
:100750000246C5F31303C1F31300C1F30A5640F474
:10076000801543F48013A7EB0608101BD64608F249
:10077000FD3873EB050002D308F1010801E092187F
:100780005B41B8F1000F03DA00200146BDE8F08DAF
:1007900000204FF48011064684460EE0171B73EBD1
:1007A000050705D3121B63EB050306434CEA010C56
:1007B00049084FEA300092185B4150EA0107EDD139
:1007C00052EA030012D082EA040083EA05010843DA
:1007D00005D0101BAB4106D20122002306E0002207
:1007E0004FF0004302E06FF0010253101AEB0600D5
:1007F0004CEB085110EB0A0041EB0B01BDE8F04D4A
:1008000000F073B8C1F30A52C1F3130140F2FF3391
:1008100041F480119A4202DA00200146704740F20A
:1008200033439A42A2F2334202DC524200F03BB818
:1008300000F02AB830B5041E71F1000404DB4FF05B
:100840000044404264EB0101141E73F1000405DB17
:100850001C464FF00043524263EB0403994208BF29
:10086000904230BD064C074D06E0E06840F00103C1
:1008700094E8070098471034AC42F6D3FFF73AFCEF
:10088000A0570008C0570008202A04DB203A00FACD
:1008900002F1002070479140C2F1200320FA03F3D7
:1008A000194390407047202A04DB203A21FA02F0D5
:1008B0000021704721FA02F3D040C2F1200291409A
:1008C000084319467047202A06DBCB17203A41FA25
:1008D00002F043EAE07306E041FA02F3D040C2F1CD
:1008E0002002914008431946704710B5141E73F159
:1008F000000408DA401C41F1000192185B411A43E0
:1009000001D120F0010010BD2DE9F04D92469B462B
:1009100011B1B1FA81F202E0B0FA80F220329046D1
:10092000FFF7B2FF04460F4640EA0A0041EA0B0116
:1009300053465A46084313D0114653EA010019D0D2
:10094000C8F140025046FFF7AEFF05460E4650463E
:1009500059464246FFF798FF084305D0012004E0BE
:1009600020463946BDE8F08D0020054346EAE07692
:100970002C4337430A986305E40AA0EB08000022E1
:10098000FD0A44EA47540A3002D500200146E9E74F
:10099000010510196941DDE9084500196941BDE803
:1009A000F04DA2E770B58C1810F8015B15F0070345
:1009B00001D110F8013B2A1106D110F8012B03E0F8
:1009C00010F8016B01F8016B5B1EF9D12B0705D400
:1009D0000023521E0DD401F8013BFAE710F8013B49
:1009E000CB1A921C03E013F8015B01F8015B521E65
:1009F000F9D5A142D8D3002070BD002904D0816868
:100A000041F0010181607047816821F0010181603E
:100A10007047000010B5154988420AD144150121DC
:100A2000204601F0DFFB2046BDE81040002101F028
:100A3000D9BB0F4988420AD104150121204601F093
:100A4000D1FB2046BDE81040002101F0CBBB094995
:100A500088420AD10121CC03204601F0C3FB204685
:100A6000BDE81040002101F0BDBB10BD00240140D5
:100A700000280140003C01400146002089684907E8
:100A800000D501207047C06C80B27047024600203C
:100A900012680A4200D00120704701460020896890
:100AA000090700D50120704710B542680E4B1A4067
:100AB0000C790B6842EA04221343436082680B4BB3
:100AC0001A40D1E9024323434C7942EA44021343DA
:100AD0008360C26A22F47002097C491EC9B242EAEC
:100AE0000151C16210BD0000FFFEF0FFFDF7F1FFF4
:100AF00070B5072609290AD9C568A1F10A0404EBD3
:100B00004404A640B543A3401D43C56007E0056902
:100B100001EB4104A640B543A3401D4305611F23DB
:100B2000072A09D2446B521E02EB820293409C4377
:100B300091400C43446370BD0D2A09D2046BD21F4F
:100B400002EB820293409C4391400C43046370BDCE
:100B5000C46A0D3A02EB820293409C4391400C43DD
:100B6000C46270BD816841F008018160704700294E
:100B700004D0816841F4A00181607047816821F44C
:100B8000A00181607047816841F004018160704775
:100B90007CB51F4D4FF47A742879002810D1472175
:100BA000204600F0C9FF1B490020CDE900104A0390
:100BB0004FF07C531849194801F0DDFA01202871E3
:100BC0002878174E022813D0E88801F05BFC717872
:100BD0001448012913D0402100F09EFCF2781248FD
:100BE0004FF40051012A0ED0BDE87C4000F094BCC7
:100BF000B07800B90024204601F044FCE7E740212A
:100C000000F08CFCEAE7BDE87C4000F087BC000007
:100C10000A00002000007A440000204268090020F9
:100C200004000020000C01400010014030B587B0E6
:100C300001214FF4017001F0C7FA4FF4004001F0B8
:100C4000ABFA2120ADF8040000248DF8074001A97B
:100C5000164800F007FC164D2846FFF7DBFE02940D
:100C60008DF80C408DF80D404FF4602104910594EF
:100C700001218DF8181002A92846FFF715FF012160
:100C80002846FFF7BAFE2846FFF76CFF2846FFF715
:100C900004FF0028FAD12846FFF775FF2846FFF722
:100CA000EBFE0028FAD107B030BD0000000801407B
:100CB0000024014010B580211648FFF74EFA164A6D
:100CC00016A1144801F038FF1248FFF763FA144CDC
:100CD000206180211348FFF740FA0F4A0FA1283204
:100CE000104801F029FF0F48FFF754FA60610D48E2
:100CF00080218030FFF731FA074A0A48503207A1B5
:100D0000803001F019FF07488030FFF743FAA061F7
:100D100010BD00007E160020780D00202573000015
:100D200014090020FE17002010B50446032C26D01D
:100D3000072C24D0102320A20021702003F05EF89D
:100D400024B3042C22D010231BA20221702003F014
:100D500055F8012C21D0052C1FD0102316A20421F8
:100D6000702003F04BF8022C1ED0062C1CD0102350
:100D70000621BDE8104010A2702003F03FB81023F8
:100D80000EA20021702003F039F8D9E710230BA23E
:100D90000221702003F032F8DBE7102307A20421C0
:100DA000702003F02BF8DEE710230621BDE8104089
:100DB00002A2702003F022B8200000002A000000E8
:100DC0002DE9F0411C4F1D4D1D4E38890024401C5B
:100DD00080B23881322817D33C816878FFF7B2FAA5
:100DE000DFF86080C8F800007168FFF72CFAB0F5F2
:100DF000000F00DA0020C8F800000021114801F0BF
:100E000083F9FFF7BDFAF880F88808B1012100E006
:100E100000210D48817032782B7801219A4201D34C
:100E2000417000E0447032896B889A4202D8C170E8
:100E3000BDE8F081C470FBE70A000020000000203C
:100E40005C090020680900200400002010B500F0B3
:100E5000C9FA342000F04CFA00F096FA03F01EF8BC
:100E600000F074FFBDE8104001F05ABCFEE700003E
:100E700038B50121042001F0A7F91024ADF8004095
:100E800014208DF8030003208DF802006946034802
:100E900000F0E8FA01481030046038BD0008014055
:100EA0002DE9F0470446002060713D484FF01009DD
:100EB000C0F800903B4E306800F083FBDFF8E0A004
:100EC000AAF1040ACAF8009000F086FBF060DFF88F
:100ED000D080A8F10C08D8F80000C00606D500F0B4
:100EE0007BFB0146F068401C8142F4D900252E4F5F
:100EF00000F072FBF060D8F80000C00605D400F0E6
:100F00006BFBF168491C8842F5D900F009FB706061
:100F100000F062FBF060D8F80000C00605D500F0D4
:100F20005BFBF168491C8842F5D900F0F9FAB06022
:100F30007168814205D9401A00F57A7047F825009A
:100F400002E0401A47F825006D1CEDB2292DCFD3E1
:100F5000CAF80090381D02F0DBFF207012482430E0
:100F600002F0D6FF60701048443002F0D1FFA0704C
:100F70000D48643002F0CCFFE0700B48843002F082
:100F8000C7FF207121786278E3781144A2781A446F
:100F90001144814201D1012060710020BDE8F08739
:100FA0001408014044000020900B0020704704E02A
:100FB0000021491CC9B27B29FBD3401E411CF7D13B
:100FC0007047000070B586B049480025494C01784B
:100FD000002904D0057002F0EEFD02206070464842
:100FE000017821B1057002F0E6FD032060706078A1
:100FF00000286DD100221146202002F099FE012226
:101000000021302002F094FE02220021402002F054
:101010008FFE03220021502002F08AFE19220221B5
:10102000002002F085FE1A220221102002F080FE2C
:10103000102332A20221302002F0E0FE304D1026B3
:10104000009602232A781946402002F09FFE1B22B8
:101050000221502002F06CFE14220421002002F034
:1010600067FE15220421102002F062FE102323A245
:101070000421302002F0C2FE6868FFF795F90246AD
:101080000B4620A102A801F057FD102302AA04215B
:10109000402002F0B3FE11220621002002F048FE9B
:1010A00018220621102002F043FE102313A206216D
:1010B000302002F0A3FE00962A8904230621402056
:1010C00002F064FE102311A20621602002F096FEB9
:1010D0006078022801D100F073FD6078032804D104
:1010E00006B0BDE8704001F02DBC06B070BD000038
:1010F000160000200A000020170000203A0000001F
:101100005C09002025352E31662525004C757800B8
:1011100010B5184A184B1178002904D001290CD0B9
:1011200002291AD023E00120107002F0FBF9906030
:101130000221184600F0F0F919E002F0F3F9916885
:10114000401AFA2813D90220107002F0EBF99060CF
:101150000221184600F0E2F909E002F0E3F9916893
:10116000401AFA2803D900201070012010BD002079
:1011700010BD00005C000020000801402DE9F04196
:1011800001F000F93E4C3F4F2078A0B1411E0025F0
:1011900004F11006082939D800EB800101EBC000EA
:1011A00007F1180101EBC00002F0C2FE01281BD0BC
:1011B000022829D05EE0FFF7ABFF00285AD00120BB
:1011C000207031A333A235A13A4801F0B5FC39486B
:1011D00039A1503001F0B0FC3A4A3BA1A2F59C6025
:1011E0007B6801F0A9FC45E02078401CC0B220706B
:1011F00009283FD94FF48071301DFEF7AEFFC6F8C5
:10120000045100F067FB35E0257033E002F01AFE70
:1012100002F088F9F968401A40F6B831884204D3E0
:1012200002F080F9F86002F063FC2E484FF47A78FF
:10123000007878B12C48007860B902F073F9396908
:10124000401A404506D302F06DF938610121274864
:1012500000F0CCFD02F0FCF902F064F93168401AAC
:10126000B0FBF8F080B260810A2803D92570207B9A
:10127000401C2073607A401C6072BDE8F081000061
:10128000580C00205C0000203132333435363738BA
:1012900000000000616263640000000041542B43C1
:1012A000574A41503D222573222C222573220D0AD4
:1012B000000000007C020020434F4E4E4543544541
:1012C000440000009408002041542B4349505354DB
:1012D0004152543D22544350222C222573222C2566
:1012E000640D0A001409002015090020F00D0020EB
:1012F0000149C860704700000020024070B50546F3
:101300004FF43026304600F079F8042811D1094C0A
:10131000206940F0020020616561206940F04000D2
:101320002061304600F06AF8216941F6FD721140F3
:10133000216170BD0020024010B5044600F052F853
:101340003520FFF7D5FF2046FFF7D8FF042803D04C
:1013500000F01AF8002010BD00F016F8012010BDB2
:1013600004200849CA68D20701D001207047CA6822
:10137000520701D502207047C968C906FBD5032072
:1013800070470000002002400248016941F08001DE
:101390000161704700200240F0B506460D464FF44B
:1013A0000057384600F02AF804280CD1064C206972
:1013B00040F0010020613580384600F01FF82169B7
:1013C000BA1E11402161F0BD0020024010B500237B
:1013D00005E030F8134021F813405B1C9BB29342A8
:1013E000F7D310BD0348024941600349416070478B
:1013F0002301674500200240AB89EFCD00B50346CD
:10140000FFF7AEFF02E0FFF7ABFF5B1E012801D143
:10141000002BF8D1002B00D1052000BD2DE9F041B3
:1014200005460E461746E80702D00020BDE8F081C9
:101430002846FFF781FFFFF7D5FF00240CE036F8C0
:10144000141005EB4400FFF7A7FF042803D0FFF7B3
:101450009BFF0020EAE7641CBC42F0D3FFF794FF37
:101460000120E3E72DE9F0410022CC7804F00F03DE
:10147000E40601D58C7823430C784FF00F0714F065
:10148000FF0F4FF0010C1CD005680CFA02F40E8817
:101490002640A64211D1960007FA06F825EA08056B
:1014A00003FA06F848EA0505CE78282E02D0482E21
:1014B00002D002E0446100E00461521C082AE4D337
:1014C00005600A88FF2A1ED94568002202F1080635
:1014D0000CFA06F40E882640A64210D1960007FAB0
:1014E00006F825EA080503FA06F848EA0505CE7865
:1014F000282E00D14461CE78482E00D10461521CC0
:10150000082AE3D34560BDE8F081024600209268D6
:101510000A4200D001207047416170470161704765
:1015200010B50C494FF0E02308689A690C68A04296
:10153000FAD10949094B0968B1FBF3F1B2FBF1F1AA
:1015400000EB4002C2EBC010C1EBC00000F57A70A6
:1015500010BD0000300900203409002040420F0077
:1015600010B50B4C0146072301222046FFF7C0FAB5
:1015700001212046FFF7FBFA02212046FFF786FAF9
:101580000028F9D02046BDE81040FFF77CBA0000E3
:10159000002401402DE9F04107460E4600250024B5
:1015A00008E03846FFF7DCFF0544052001F066FF40
:1015B000641CE4B2B442F4D3B5FBF6F080B2BDE8EB
:1015C000F08100B5014600F007F8024600F004F88B
:1015D000801A8842FAD300BD0148006870470000B5
:1015E00030090020FEE700002DE9F04705460824F9
:1015F0000F4E4FF400686702A6F1040911E037604E
:1016000000F06CF8280602D5C9F8008001E0C6F8A1
:1016100000806806050E00F061F8C9F8007000F05F
:101620005DF8641EE4B2EAD23760BDE8F0870000DE
:101630001408014070B50D484FF400640460811433
:10164000016000F04BF8094D083D2868074E361D33
:10165000346000F043F82868000501D5002070BD13
:10166000346000F03BF8012070BD0000100801401C
:1016700070B5094C4FF48056266000F02FF8E51441
:10168000256000F02BF8241F266000F027F8256065
:10169000BDE8704000F022B81408014070B50E4D4E
:1016A0004FF480542C6000F019F82E1F6010306049
:1016B00000F014F8346000F011F807480C380068A6
:1016C000000504D52C6000F009F8002070BD2C60E6
:1016D00000F004F8012070BD140801400520401EF0
:1016E000C0B20028FBD1704738B50121082000F0B6
:1016F0006BFD4FF47040ADF8000048208DF80300FA
:10170000084C69462046FFF7ADFE69462046FFF7C4
:10171000A9FE69462046FFF7A5FE69462046FFF769
:10172000A1FE38BD000C014003480178002901D119
:101730000121017070470000140000200348417827
:10174000002901D1012141707047000014000020E0
:1017500003488178002901D1012181707047000080
:10176000140000200348C178002901D10121C17073
:1017700070470000140000202DE9F047484E4FF458
:10178000805739463046FFF7C0FE464C012508B960
:10179000A06838B14FF4005841463046FFF7B5FE17
:1017A00098B114E06268521C6260022A0BDD39466F
:1017B0003046FFF7AAFE002805D1A068002802D114
:1017C000FFF7B2FFA560BDE8F087A06838B14FF41D
:1017D000804949463046FFF798FE90B113E06168B2
:1017E000491C61600229EEDD41463046FFF78DFE5F
:1017F0000028E8D1A0680028E5D1FFF79FFFA56089
:10180000E1E7A06838B14FF4004A51463046FFF78F
:101810007CFE90B113E06168491C61600229D2DD51
:1018200049463046FFF771FE0028CCD1A068002859
:10183000C9D1FFF78DFFA560C5E7A068F0B13946B3
:101840003046FFF762FE0128BDD141463046FFF722
:101850005CFE0128B7D149463046FFF756FE012805
:10186000B1D151463046FFF750FE0128ABD1A068F8
:101870000128A8D100206060A060A4E76168491C2D
:10188000616002299FDD51463046FFF73EFE002889
:1018900099D1A068002896D1FFF764FFA56092E770
:1018A000000C01401400002008B50121102000F0B8
:1018B0008BFC4FF40050ADF8000010208DF80300B1
:1018C00003208DF8020069460148FFF7CBFD08BDF3
:1018D000001001400549002048730649044848604B
:1018E000886000F2DC50C86000F0BAB9580C0020E3
:1018F000A80F00201409002070B562480026624D30
:10190000017800290BD00670E878401CC0B2E8705E
:10191000032800D3EE70E87808B902F04CF9E878B3
:10192000FFF702FA59485A4C0178D1B10670E878AD
:1019300020B1012809D0022813D10DE0607810B140
:10194000002060700DE00120FBE7A07810B10020BE
:10195000A07006E00120FBE7E07800286ED00020B0
:10196000E07004220021202002F0E2F9052200218B
:10197000302002F0DDF906220021402002F0D8F9E3
:1019800007220021502002F0D3F91C22022100205E
:1019900002F0CEF91D220221102002F0C9F9102315
:1019A0003CA20221202002F029FA6078012847D0C9
:1019B0000E220221302002F0BBF90F22022140202A
:1019C00002F0B6F916220421002002F0B1F9172224
:1019D0000421102002F0ACF910232EA204212020B3
:1019E00002F00CFAA078012835D00E220421302014
:1019F00002F09EF90F220421402002F099F91022F2
:101A00000621002002F094F911220621102002F094
:101A10008FF910231FA20621202002F0EFF9E078B1
:101A2000012823D00E220621302002F081F9BDE8E2
:101A300070400F220621402002F07AB901208FE782
:101A40000C220221302002F073F90D2202214020E5
:101A500002F06EF9B6E70C220421302002F068F99A
:101A60000D220421402002F063F9C8E70C22062170
:101A7000302002F05DF9BDE870400D2206214020C3
:101A800002F056B9150000200A00002016000020C0
:101A9000040000203A000000FEE7000070B5FFF7E8
:101AA00077F81F4E1F4D00243078A8B1687898B998
:101AB0001D4804701D4804701D4804703470287857
:101AC000401C287002F077F82878022804D11948C1
:101AD000C47084704470EC80307828B1687818B194
:101AE0006C70347002F067F82878032800D32C70EB
:101AF000287838B101280BD002280FD1BDE87040FA
:101B0000FFF7FABEFFF75EFABDE87040FFF758B97D
:101B100000F036FEBDE87040FFF752B970BD00001E
:101B2000140000200A0000201700002016000020EA
:101B3000150000200400002030B589B004460D4691
:101B40000121042000F032FB0121092000F03CFBC0
:101B50008022ADF8202018228DF8232003228DF852
:101B6000222008A91448FFF77DFCADF81840ADF815
:101B700014500024ADF81A40ADF816400F4D05A9D9
:101B8000284600F07FFD6021ADF804100121ADF87A
:101B90000610ADF80A40ADF80C4001A9284600F047
:101BA00021FD0821284600F061FD0121284600F0B2
:101BB000F7FC09B030BD0000000C014000080040F7
:101BC00010B50021102318A2084602F017F91023BF
:101BD00017A20221002002F011F9174C1023002156
:101BE00022783C2000F05CFA627B102302213C202A
:101BF00000F056FA102311A20421002002F0FEF892
:101C0000102310A20421302002F0F8F810230FA2B4
:101C10000621002002F0F2F810230621BDE8104052
:101C20000CA2302002F0EAB84E45543A0000000001
:101C30004D515F434E540000580C00204E616D65BD
:101C40003A00000061626364000000005061737339
:101C50003A000000313233343536373800000000A6
:101C60002DE9F04701244FF00A09344ED6E904204B
:101C7000B16910444718BF1D07F10A05DFF8C0809D
:101C8000102088F800000EE0E81705EB506121F005
:101C90007F00281ACD11002D01DD40F08000214683
:101CA000641C08F80100002DEEDC002308F8043065
:101CB00008EB0400042545704D2181705121C1704D
:101CC0005421017141718571C221C1710372642176
:101CD0004172D11702EB11610B0A83721146C17276
:101CE0000C301849FEF720FA7269D01702EB106128
:101CF00030690B0A204440440373114641730E308F
:101D00001149FEF711FAB2697569D01702EB10613B
:101D100030690B0A20442844404483731146C17340
:101D2000094910308031FEF7FFF904EB0900C119B1
:101D3000BDE8F047024801F0A1BE000014090020F0
:101D4000180E00207E160020FE17002010B5A821D6
:101D50001748FEF702FA01F093FB1649144CB0FB4A
:101D6000F1F201FB1203636013A216A104F1080053
:101D700000F0E2FE15A213A104F13000636800F048
:101D8000DBFE15A20FA104F15800636800F0D4FE39
:101D900014A20CA104F18000636800F0CDFE04F1F0
:101DA00094006368BDE810400FA206A100F0C4BE15
:101DB000700D002040420F004445564943454E41B6
:101DC0004D450000257325303664000050524F44C5
:101DD0005543544B455900004445564943455345E6
:101DE0004352450073756200707562002DE9F0473B
:101DF00081468846012402274846FEF7CBF9C51CD8
:101E0000A81C1E4E822131700DE0C11700EB5162FB
:101E100022F07F01411AD011002801DD41F080013C
:101E20002246641CB1540028EFDC0020305506EB3C
:101E3000040A0A208AF801004846FEF7ABF9000AB6
:101E40008AF802004846FEF7A5F98AF803004846DA
:101E5000FEF7A0F902460AF104004946FEF764F9CC
:101E60004846FEF797F92044304480F80480E01992
:101E70004119BDE8F047014801F000BE180E0020EE
:101E800030B585B00121042000F09EF901214804FD
:101E900000F08CF918208DF813000424ADF81040E0
:101EA00001208DF81200174D04A92846FFF7DAFA31
:101EB0008DF813400821ADF8101004A92846FFF74B
:101EC000D1FA4FF4E13000900020ADF80C000C2165
:101ED000ADF80A10ADF80800ADF80600ADF8040042
:101EE000094C6946204600F085FD012240F225514B
:101EF000204600F063FD0121204600F053FD05B0AF
:101F000030BD00000008014000440040704738B573
:101F10004FF4A06000F04EF81C208DF80000022065
:101F20008DF801008DF8020001248DF80340684609
:101F300000F00EF826208DF8000000208DF801003A
:101F40008DF802008DF80340684600F001F838BDB6
:101F500070B50F23C27801260178002A1ED0144ADA
:101F6000126802F4E062C2F5E062120AC2F10404EF
:101F7000D3404578A54082781A402A43120101F1E6
:101F8000E02181F80024007800F01F018E40400914
:101F9000800000F1E020C0F8006170BD01F01F007A
:101FA00086404809800000F1E020C0F8806170BDE3
:101FB0000CED00E002490843024908607047000048
:101FC0000000FA050CED00E00907090E002806DA0A
:101FD00000F00F0000F1E02080F8141D704700F1C0
:101FE000E02080F80014704710B504460846002130
:101FF000B03000F075F8102040EA1410002100F015
:102000006FF804F00F00BDE81040002100F068B840
:102010002DE9F04180460F460024203AD5B2B8F1B0
:102020007F0F02D9A046BF1CFFB2102B12D0394639
:102030004046FFF7D9FF184905EB450001EB400585
:102040000121285D00F04CF8641CE4B2062CF7D3A3
:10205000BDE8F08139464046FFF7C6FF0F4E04EB5E
:1020600005100121305C00F03BF8641CE4B2082C40
:10207000F5D37F1CF9B24046FFF7B6FF002404EB0E
:10208000051030440121007A00F02AF8641CE4B203
:10209000082CF4D3DCE70000D83F00080042000819
:1020A000F0B585B004460D4617461E4614220A496F
:1020B0006846FEF739F83A4608A1684600F03CFD4C
:1020C00000228DF8052033466A462946204601F055
:1020D00095FE05B0F0BD0000F05600082533640001
:1020E00010B5084C002906D0C2B24021782000F07B
:1020F000CFF9207010BDC2B20021782000F0C8F9DD
:10210000207010BD200000202DE9F04104466160E0
:102110002068FEF798F80646A06031462069FEF771
:1021200040F8074620613046E168FEF78CF8E16927
:10213000FEF78FF805463946A069FEF78AF807468C
:1021400031466069FEF785F83946FEF72AF82946D8
:10215000FEF727F80546E6602846216AFEF742F9B1
:1021600000D2256A616A2846FEF732F900D2656A14
:102170002846BDE8F08130B5DDE903454161826163
:10218000C3610021016041608160C160016104623E
:10219000456230BD70470000034A516821F4404158
:1021A000014351607047000000100240054A0029B9
:1021B00003D0D1690143D1617047D1698143D161B5
:1021C0007047000000100240054A002903D09169C1
:1021D00001439161704791698143916170470000AB
:1021E00000100240054A002903D0D1680143D160A4
:1021F0007047D1688143D1607047000000100240F1
:1022000010B5264A516801F00C01254B002927D052
:10221000042927D0082927D00360516801F0F00174
:102220000909204B5C5C0168E1404160546804F49A
:10223000E064240A1C5D21FA04F48460546804F408
:102240006054E40A1B5DD940C160526802F4404208
:10225000920B144B1B1F9A5CB1FBF2F1016110BD94
:102260000360DAE70360D8E7516801F4701153683E
:1022700003F48033022404EB914133B153689B0390
:1022800007D5094B59430160C7E7074B5943016024
:10229000C3E7034B59430160BFE700000010024051
:1022A00000127A004C09002000093D0038B50121D8
:1022B0000820FFF789FF4020ADF8000010208DF8BE
:1022C000030003208DF80200044C69462046FFF706
:1022D000C9F840212046FFF71FF938BD000C014026
:1022E0002DE9F04704460027A4F6FF704042FEF7B0
:1022F00020F8054604EB84004000FEF723F8294649
:10230000FDF7D9FF064600241C4D601C05EBC000FC
:1023100041683046FEF766F82AD205EBC4004168F2
:102320003046FEF755F823D8601C074605EBC00081
:10233000416805EBC400D0F804804046FDF783FFF8
:10234000814631464046FDF77EFF4946FDF7B3FF23
:10235000064655F8344055F837002146FDF773FF1F
:102360003146FDF776FF2146BDE8F047FDF719BF7E
:10237000641C032CC9D33846BDE8F0872400002034
:102380007047000010B501F0CDF80D490D4C4A69B9
:10239000801AB0F57A7F04D301F0C4F848610120B7
:1023A0002070207800280AD007480078092804D92E
:1023B0000648007808B101F019F90020207010BD1E
:1023C0005C00002004000020580C002015090020AB
:1023D000AFF300800CB500220192009227480168FB
:1023E00041F4803101604FF4A063016801F40031D1
:1023F00000910199491C0191009911B901999942E3
:10240000F3D10168890302D50121009100E0009217
:102410000099012930D11A490A6842F010020A6075
:102420000A6822F003020A600A6842F002020A60A7
:102430004168416041684160416841F480614160A8
:10244000416821F47C114160416841F4E811416028
:10245000016841F08071016001688901FCD5416823
:1024600021F003014160416841F00201416041688F
:10247000C1F381010229FAD10CBD00000010024015
:10248000002002400146014800F0FAB80008004070
:1024900070B506460C461546FFF7CCF8A8B1304695
:1024A000FFF7A2F8FFF7FAF888B12046FFF79CF88B
:1024B000FFF7F4F82846FFF797F8FFF7EFF8FFF774
:1024C000D7F800F0A7FF012070BD002070BDFFF716
:1024D000CFF8002070BD000002480168491C01606F
:1024E000704700003009002010B50F48016841F026
:1024F0000101016041680D4A1140416001680C4AC8
:1025000011400160016821F480210160416821F4DB
:10251000FE0141604FF41F018160FFF759FF05493B
:102520004FF00060086010BD001002400000FFF88E
:10253000FFFFF6FE08ED00E010B501218C072046F4
:1025400000F03AF8002807D0FFF716F92046BDE85A
:102550001040012100F021B810BD3EB504460D46E3
:1025600001210846FFF722FEADF80440ADF8005007
:102570000020ADF80600ADF802004FF08044694637
:10258000204600F07FF801221146204600F020F896
:102590000121204600F004F83EBDC9430182704786
:1025A000002904D0018841F00101018070470188B1
:1025B00021F001010180704702460020138A0B4080
:1025C00092890A40002B02D0002A00D001207047D7
:1025D000002A03D082890A438281704782898A4314
:1025E0008281704770B5028C22F010020284028C46
:1025F0008388048B24F4E04424F440760D884FF65D
:10260000FF7404EA0525354322F020020E8904EA0E
:10261000061616434A8804EA02123243114EB042AB
:1026200002D0114EB04217D122F080024E8904EA46
:102630000616164326F040068A8804EA0212324340
:1026400023F4806323F400638E8904EA86061E4324
:10265000CB8904EA8303334383800583C9880187D8
:10266000028470BD002C014000340140028B22F432
:1026700000624FF6FF7303EA0121114301837047A3
:102680000187704730B502881B4C1C4DA0420DD00D
:10269000A8420BD0B0F1804F08D0194B984205D01A
:1026A000184B984202D0184B984203D122F0700385
:1026B0004A881A43154B984206D0154B984203D0CE
:1026C00022F44073CA881A4302808A8882850A8865
:1026D0000285A0420AD0A84208D00E4A904205D0F6
:1026E0000D4A904202D00D4A904201D1097A0186EA
:1026F0000121818230BD0000002C014000340140E6
:102700000004004000080040000C004000100040A1
:1027100000140040004001400044014000480140D6
:1027200070B5144945F2555213480B88134C01F10A
:102730006605934214D0202303701423437064234E
:1027400043800A800068C1F8020001F03BFC64226B
:1027500021462846FDF7E8FCBDE8704001F032BC98
:10276000D1F80210016029462046BDE8704064227D
:10277000FDF7DABC9009002000000020780D002051
:10278000F8B56A486A4E00250178002907D005701F
:10279000B078401CC0B2B070032800D3B570B078D8
:1027A000FEF7C2FA6348644C017891B10570B078C5
:1027B00020B1012806D002280BD107E02078401C68
:1027C000207006E06078401C607002E060880A308B
:1027D00060805A48017891B10570B07820B1012825
:1027E00006D002280BD107E02078401E207006E0BA
:1027F0006078401E607002E060880A386080B078BF
:10280000032877D208220021202001F091FA092222
:102810000021302001F08CFA0A220021402001F032
:1028200087FA0B220021502001F082FA192202219E
:10283000002001F07DFA1A220221102001F078FA1E
:1028400008220221202001F073FA092202213020FF
:1028500001F06EFA10233AA20221402001F0CEFAD4
:1028600010260096022322781946502001F08EFA95
:1028700014220421002001F05BFA1522042110200B
:1028800001F056FA08220421202001F051FA092211
:102890000421302001F04CFA102329A20421402009
:1028A00001F0ACFA0096627802230421502001F076
:1028B0006DFA11220621002001F03AFA18220621B1
:1028C000102001F035FA08220621202001F030FA0C
:1028D00009220621302001F02BFA102318A206212C
:1028E000402001F08BFA00966288042306215020D4
:1028F00001F04CFA21786320632900D920702178F7
:1029000001B925706178632900D96070607800B9D9
:1029100065706088B0F57A7F02D340F2DE30608067
:102920006088002800D16580F8BD000015000020F7
:102930000A000020160000200000002017000020E0
:102940003A00000010B5002110230CA2084601F047
:1029500055FA10230B4A0221002001F04FFA1023F0
:1029600009A20421002001F049FA064A1023143A72
:102970000621BDE81040002001F040BA5375623ACC
:1029800000000000040E00205075623A00000000B4
:10299000014800F09DB80000004400408A05C9438A
:1029A00001807047002904D0818941F40051818160
:1029B0007047818921F400518181704710B540F63C
:1029C0006A13C1F3421301F01F040121A140012B3E
:1029D00007D0022B07D014303AB102680A430260D4
:1029E00010BD0C30F8E71030F6E702688A43026049
:1029F00010BD000030B585B004460D46208A4CF667
:102A0000FF710840E98801432182A0894EF6F31145
:102A10000840A9882A8911436A8902431143A18188
:102A2000A08A4FF6FF410840A9890143A182684668
:102A3000FFF7E6FB1D48844201D1039800E00298AD
:102A4000A189090408D500EBC00101EB0010296839
:102A50004900B0FBF1F007E000EBC00101EB001012
:102A600029688900B0FBF1F06422B0FBF2F10901A2
:102A70000B096FF018056B4300EB8300A3891D045D
:102A80004FF0320307D503EBC000B0FBF2F000F0CB
:102A90000700084306E003EB0010B0FBF2F000F083
:102AA0000F000843208105B030BD00000038014010
:102AB00000B5D1F80421FF2A09D80B1DD054D1F854
:102AC0000401401CC1F8040100F02CFD086000BDA9
:102AD00070B504462088800602D4208800070ED5F1
:102AE000A088C5B220212046FFF758FF0448844241
:102AF00005D12846BDE870400249FFF7D9BF70BD37
:102B000000440040680C0020FEE7000008B50121E9
:102B10000420FFF759FB0220ADF8000010208DF8CB
:102B2000030003208DF8020069460248FEF79AFC74
:102B300008BD0000000801400FB4084B10B504A9FF
:102B400002AA039800F0DEF8044602A9002000F073
:102B50005CFC204610BC5DF814FB00000B34000840
:102B600002E008C8121F08C1002AFAD17047704756
:102B7000002001E001C1121F002AFBD170470000B4
:102B80002DE9FF5F82B00021DDE90430020DDDF8A0
:102B900040B0034318D044F61050A2F2FF32424333
:102BA0001514119801281FD0A5EB0B00401C5FEAFB
:102BB000000A4FF000064E4FDFF83891B0465046FD
:102BC00015D5CAF1000413E0119801244AA3012885
:102BD00001D16FEA0B010298119AC0E90031C0E9F6
:102BE000024206B0BDE8F09FCBF10000DFE70446EB
:102BF0000021404A491842EB0450CDE9001012E090
:102C0000E00707D032463B4640464946FDF719FDEE
:102C10008046894632463B4610461946FDF711FD6F
:102C200006460F466410002CEAD1DDE90401DDE917
:102C30000023BAF1000F06DAFDF703FD42464B46CA
:102C4000FDF7FFFC05E0FDF76EFD42464B46FDF744
:102C50006AFD04460E460022284BFDF7EBFD03D823
:102C60004FF0FF30014607E00022254B2046314659
:102C7000FDF740FCFDF7C6FD102409E0002C0ADB3F
:102C80000A220023FDF7CEFB039B30321A55641E47
:102C900050EA0102F2D1641C039AC4F111031444F6
:102CA000119A012A03D0012208430DD10AE00843FA
:102CB00004D000204FF0110B119072E7A3EB0B052D
:102CC0006D1E0DE05B4504DD4FF0000205F10105CE
:102CD00004E003DA4FF00002A5F10105002AECD070
:102CE00002981199C0E90231C0E9004579E7000076
:102CF000000014400000F03F300000000000F043EE
:102D00000000E03F2DE9FF4F95B09A468846064601
:102D10000025EEE1252877D100242746F94A012134
:102D2000039400E0044316F8013F203B01FA03F04E
:102D30001042F7D130782A2811D06FF02F03307865
:102D4000A0F13002092A16D8039A44F0020402EBDB
:102D5000820203EB42021044761C0390EFE758F81E
:102D6000042B0392002A03DA504244F400540390E7
:102D700044F00204761C30782E2816D116F8010F84
:102D800044F004042A280DD06FF02F023078A0F10F
:102D90003003092B09D807EB870302EB4303C7185D
:102DA000761CF3E758F8047B761C30786C280FD03B
:102DB00006DC4C2817D068280DD06A2814D104E00E
:102DC000742810D07A280FD10DE044F400140AE0E2
:102DD00044F4801401E044F440147278824202D139
:102DE00004F58014761C761C307866280BD013DC32
:102DF000582877D009DC002875D04528F6D0462819
:102E0000F4D047281AD193E118E0632835D064281C
:102E100079D0652812D18BE1702873D008DC67283F
:102E2000F1D069286FD06E280DD06F2806D1ACE0A4
:102E300073282CD0752874D0782853D0524617990F
:102E400090476D1C54E1C4F30250022809D00328B6
:102E50000DD0D8F8001004280DD00D6008F104083A
:102E600046E1D8F80010EA17C1E90052F6E7D8F8B1
:102E700000100D80F2E70D70F0E718F8041B8DF8D4
:102E8000001000208DF80100EB46012003E058F807
:102E900004BB4FF0FF3061074FF0000102D40DE09A
:102EA00009F101018946B9420FDA8145F8DB1BF8C7
:102EB00009100029F4D108E009F101018946814295
:102EC000FADB1BF809100029F6D103985346A0EB52
:102ED000090721463846179A00F080FA284400EB8B
:102EE000090507E044E008E10DE01BF8010B52463C
:102EF00017999047B9F10109F7D253462146384650
:102F0000179AF2E039E00A21C4F302524FF0000BA5
:102F10000091022A06D058F8040BC117032A09D0E1
:102F20000AE023E008F1070020F00702F2E80201BE
:102F3000904605E000B2C117042A01D140B2C11782
:102F4000002906DA0A460021404261EB02012D22E7
:102F500002E0220504D52B228DF80420012203E093
:102F6000E20701D02022F7E7914657E00A2100E06E
:102F700010214FF0000B00910BE010214FF0000BDF
:102F800044F004040827009103E008204FF0000BF0
:102F90000090C4F30252022A05D058F8040B002115
:102FA000032A08D008E008F1070020F00702F2E841
:102FB0000201904603E080B2042A00D1C0B24FF073
:102FC000000922072AD53278702A07D0DDF800C020
:102FD0008CF0100C5CEA0B0C05D00EE040228DF852
:102FE0000420012208E050EA010306D030238DF8C6
:102FF00004308DF8052002229146009B83F00803DF
:1030000053EA0B030AD150EA010201D1620705D548
:1030100030228DF804204FF001097F1E3278582AA3
:1030200004D039A20C920CAA02920BE03BA2F9E761
:103030005B46009AFDF7F6F90C9B9B5C029A521EC8
:103040000292137050EA0102F2D1029804A9081A00
:1030500000F1200B600702D524F4803400E0012742
:103060005F4502DDA7EB0B0000E0002000EB0B0149
:10307000009003984944401A0390E00306D4534655
:103080002146179A039800F0A9F90544002706E0A5
:1030900001A85246C05D179990476D1C7F1C4F4593
:1030A000F6DBE0030CD553462146179A039800F04F
:1030B00095F9054404E030205246179990476D1C5D
:1030C0000099481E00900029F5DC08E0029802995A
:1030D00052460078491C0291179990476D1CBBF12C
:1030E0000001ABF1010BF1DC5BE100F065F9054497
:1030F000761C307800287FF40DAE19B02846BDE864
:10310000F08F000009280100303132333435363772
:103110003839616263646566000000003031323323
:1031200034353637383941424344454600000000C3
:10313000600700D4062708F1070020F00700F0E838
:103140000223804603F0004C5FEA0C0001D097A0F8
:1031500009E0200501D596A005E0E00701D095A083
:1031600001E0AFF24C001390307823F00043652863
:103170000CD006DC452809D046281DD047287FD131
:103180003BE0662818D067287AD136E00021112F5D
:1031900001DB112000E0781CCDE9000104A90CA896
:1031A000FFF7EEFCDDE90D010C9A4FF0000B07F183
:1031B0000109109200914EE04FF000400097CDE9D8
:1031C000011004A90CA8FFF7DBFCDDE90D020C9B44
:1031D0000F994FF0000B91461093009211B9791C92
:1031E00000EB0109B7EB090003D4C0F1FF3B07F185
:1031F0000109A9EB0700019042E0012F00DA012745
:103200000021112F01DD112000E03846CDE9000139
:1032100004A90CA8FFF7B4FCDDE90D010C9A00919C
:103220004FF0000BB946109221070FD4009A4A457F
:1032300003DA914601E0A9F10109B9F1010F05DDB9
:10324000109AA9F10101515C3029F4D0B84202DA98
:1032500010F1040F03DA0121CDE9011010E000287C
:1032600003DC8344A9EB000102E0411C494500DD79
:103270008946A0EB0B00401C01904FF000400290EB
:10328000200705D40198484502DB4FF0FF3001903C
:1032900000208DF84B0002980DF14B07B0F1004F64
:1032A00025D002200C902B200D90029800280CDADB
:1032B000404202902D200D9007E00A210298FDF770
:1032C0009BF83031029007F8011D0C99481E0C90B4
:1032D0000029F2DC02980028EFD1791E0D980870C1
:1032E000307800F0200040F0450007F8020D11A8EA
:1032F000C01BC01D02901398007800B1012000EBA4
:103300000901019801EBE071029801440398401A09
:10331000401E0390E00306D453462146179A0398B3
:1033200000F05CF805441398007818B152461799DC
:1033300090476D1CE00323D553462146179A039806
:1033400000F04CF805441BE0BBF1000F07DB0098D0
:10335000584504DD1098179910F80B0001E01799F3
:1033600030205246904701980BF1010B401E05F1A9
:103370000105019004D12E205246179990476D1CEB
:10338000B9F10001A9F10109DEDC05E017F8010B34
:103390005246179990476D1C0299481E02900029C9
:1033A000F4DC53462146179A03989EE62D00000050
:1033B0002B000000200000002DE9F041044600250C
:1033C0001E461746880404D405E039462020B0473D
:1033D0006D1C641EF9D52846BDE8F0812DE9F04149
:1033E000044600251E469046C80301D5302700E05C
:1033F0002027880404D505E041463846B0476D1CB7
:10340000641EF9D52846BDE8F0810A68531C0B609C
:10341000107070473220401E0028FCD17047000019
:1034200070B514484FF47A710068B0FBF1F10026D2
:10343000751EB1F1807F0CD221F07F404FF0E02467
:10344000401E60610F212846FEF7BEFDA6610720E1
:10345000206109480068C0F30222101D072801D22C
:10346000002200E0D21E06FA02F12846BDE87040B4
:10347000FEF7AABD340900200CED00E0FEF7A1B86C
:10348000F0B5002025498A6942F401728A614A68D0
:1034900022F440424A604A6842F400424A60204EA8
:1034A0004FF460213160316841F0010131603168D1
:1034B00041F00801316031680907FCD4316841F0FE
:1034C0000401316031684907FCD4154A4FF4E031FA
:1034D000083211600021124C083C326842F4A0020C
:1034E000326022689207FCD50D4A4432126892B2CB
:1034F0000A23B2FBF3F503FB1525B2FBF3F2B2FB93
:10350000F3F703FB17222A44D2B200EB80004000FD
:103510001044491CC9B20629DFD3F0BD0010024097
:10352000082401400148006870470000300900206D
:10353000FFF776FFFEF7EBFCFDF788FCFEF7A0FC3B
:10354000FFF7E4FAFDF7B6FBFEF7CEF8FEF7ACF9AD
:1035500000F04EFBFEF7AAFE41F61F4140F2F310C9
:10356000FEF7FBFFFDF762FBFDF782FC00F023FB9B
:10357000184EDFF86480DFF86490194D194F1A4C2B
:10358000FDF7FCFD1348FDF78BFC707908B1B078AE
:1035900020700A210020FDF7FDFFFEF7A1FEFCF7D9
:1035A000D6FE20810A210520FDF7F4FFFCF7CAFEB4
:1035B0004146FCF74EFE4946FCF748FEA84200DDB6
:1035C0002846B84200D300206060FEF767FA00F09A
:1035D0006FFCD5E7540000201F2EB93DD5381F439E
:1035E0000000C842000080805C09002070B5CAB0AD
:1035F000124C6068FCF7D8FE114A1379D57896789A
:103600005278CDE9076506920E4A099326895588B6
:10361000537812788DE8430003A80B492CC0227818
:103620000AA8FFF789FA0AA8FCF7B4FD02460AA91E
:10363000064800F067FA4AB070BD00005C0900203F
:10364000040000200000002018570008040E00208D
:103650002DE9F05FB54E00250124D6E9011088421E
:103660003ED08278B249202A06D0902A1BD0D02A98
:1036700029D0302A29D02AE04079062811D2DFE863
:1036800000F00306080A0C0E34704C731FE04D73F3
:103690001DE04D731BE04D7319E04D7317E04D7342
:1036A00015E04D7313E08079012801D04D730EE0D1
:1036B0007470B5709F48FCF76DFD02469D499E48A9
:1036C00000F020FA03E0B47001E000F0EDF9B0681A
:1036D00000F5C870B060F168884201D39748B060C7
:1036E000F07801287ED1F570DFF860A294A10AF18C
:1036F0000200FCF73DFD964E10B100F05CFA35700B
:1037000094A10AF10200FCF733FD944F4FF0020937
:1037100038B100F050FA86F800903D71FD70BD7030
:103720007D708FA10AF10200FCF722FD10B100F0BC
:1037300042FA34708DA10AF10200FCF719FD10B1B4
:1037400000F039FA35708DA10AF10200FCF710FD86
:10375000DFF8348240B198F80000032801D300F06C
:103760002AFA88F800507C7088A10AF10200FCF760
:10377000FFFC40B198F80000032801D300F01BFAC9
:1037800088F800507D7084A10AF10200FCF7F0FC7B
:1037900040B198F80000032801D300F00CFA88F833
:1037A0000040BC707FA10AF10200FCF7E1FC40B1CF
:1037B00098F80000032801D300F0FDF988F80040D4
:1037C000BD707BA10AF10200FCF7D2FC40B198F871
:1037D0000000032801D300F0EEF988F80090FC7097
:1037E00076A100E09FE0D3460AF10200FCF7C0FC9E
:1037F00040B198F80000032801D300F0DCF988F804
:103800000090FD7070A10BF10200FCF7B1FC4FF0CD
:10381000030A40B198F80000032801D200F0CBF968
:1038200088F800A03C716BA10BF10200FCF7A0FC32
:1038300040B198F80000032801D200F0BCF988F8E4
:1038400000A03D7166A1DA460BF10200FCF790FC86
:10385000684FDFF8A48158B198F80000032801D31D
:1038600000F0A9F9347088F800503878401C38709E
:1038700062A10AF10200FCF77BFC58B198F8000045
:10388000032801D300F097F9347088F80050387895
:10389000401E38705EA10AF10200FCF769FC58B1C5
:1038A00098F80000032801D300F085F9347088F8F7
:1038B00000407878401C78705AA10AF10200FCF7A9
:1038C00057FC58B198F80000032801D300F073F9B1
:1038D000347088F800407878401E787056A10AF15C
:1038E0000200FCF745FC58B198F80000032801D30A
:1038F00000F061F9347088F8009078880A30788098
:1039000052A10AF10200FCF733FC00280BD098F812
:103910000000032801D300F04EF9347088F80090BD
:1039200078880A387880BDE8F09F000014090020EC
:10393000580C0020FE160020040E0020A80F0020C6
:103940004175746F6D617469630000008E1A002008
:103950000A0000204D616E75616C000004000020BB
:103960005468726573686F6C644F4E00546872657A
:1039700073686F6C644F46460000000053776974AB
:103980006368314F4E0000000D00002053776974CA
:103990006368314F46460000537769746368324F5D
:1039A0004E000000537769746368324F464600004A
:1039B000537769746368334F4E000000537769741E
:1039C0006368334F46460000537769746368344F29
:1039D0004E000000537769746368344F4646000018
:1039E00054656D705468726573686F6C644164648B
:1039F00000000000000000200C00002054656D70E5
:103A00005468726573686F6C64446F776E00000071
:103A1000536F696C5468726573686F6C6441646459
:103A200000000000536F696C5468726573686F6CB6
:103A300064446F776E0000004C6967687454687264
:103A40006573686F6C644164640000004C6967686A
:103A5000745468726573686F6C64446F776E0000AD
:103A600010B50A4601460348FCF75EFB02490120F7
:103A7000C87010BD901A00201409002010B504462B
:103A8000C817084B01EB1060020A1A7008465870FC
:103A90000A462146981CFCF747FBBDE81040014848
:103AA00000F078B8FE18002030B5E5B00022012102
:103AB0000B46801CC45C04F07F0505FB0122C90194
:103AC0005B1C2406F6D4C118C45C4978022505EBBA
:103AD00004240C44151BE11801442A4601A8FCF7F4
:103AE00023FB294601A8FFF7BBFF65B030BD0000EE
:103AF0000348C0210170002141700221FFF7BEBFC1
:103B0000180E00202DE9F04780468946164601240C
:103B10004046FCF73FFB851CA8191D4F302139702A
:103B20000DE0C11700EB516121F07F02821AC8112C
:103B3000002801DD42F080022146641C7A540028EE
:103B4000EFDC4046FCF726FB000A38554046FCF700
:103B500021FB07EB040A8AF801004046FCF71AFB38
:103B600002460AF102004146FCF7DEFA4046FCF745
:103B700011FB20443844801C32464946FCF7D4FAF5
:103B800060198119BDE8F0470148FFF777BF0000D1
:103B9000180E002070B50546012405E02819401CC8
:103BA000012100F0A1F9641C6878297800EB01205C
:103BB000A042F3DA70BD70B50025002105F1B00018
:103BC000FEF78EFA00210846FEF78AFA002110203F
:103BD000FEF786FA002401210020FEF781FA641C1A
:103BE000E4B2802CF7D36D1CEDB2082DE5D370BD87
:103BF000F8B501210420FEF7E7FA10208DF8030044
:103C000003208DF802004FF48054ADF80040474E79
:103C100069463046FDF726FC6510ADF80050694650
:103C20003046FDF71FFC21463046FDF777FC29465C
:103C30003046FDF773FCAE2200217820FEF728FC09
:103C40000028F8D04FF4C870FDF7B1F90021AE207C
:103C5000FEF746FA00210846FEF742FA002110203E
:103C6000FEF73EFA00214020FEF73AFA0021B0208C
:103C7000FEF736FA00218120FEF732FA0021FF20FC
:103C8000FEF72EFA0021A120FEF72AFA0021A62035
:103C9000FEF726FA0021A820FEF722FA00213F2095
:103CA000FEF71EFA0021C820FEF71AFA0021D320E1
:103CB000FEF716FA00210846FEF712FA0021D52079
:103CC000FEF70EFA00218020FEF70AFA0021D82024
:103CD000FEF706FA00210520FEF702FA0021D9209E
:103CE000FEF7FEF90021F120FEF7FAF90021DA20B3
:103CF000FEF7F6F900211220FEF7F2F90021DB2091
:103D0000FEF7EEF900213020FEF7EAF900218D20C0
:103D1000FEF7E6F900211420FEF7E2F90021AF20BA
:103D2000FEF7DEF9FFF747FFF8BD0000000801408D
:103D30002DE9F04781468846174641464846FEF73A
:103D400053F90024104E06EBC7150121285DFEF73C
:103D5000C7F9641CE4B2102CF7D308F1010808F08D
:103D6000FF014846FEF740F90024012000EB470020
:103D700006EB80150121285DFEF7B2F9641CE4B260
:103D8000102CF7D3BDE8F087F04700082DE9F05F6D
:103D90008046DDF828A08B4691461D46002600246B
:103DA0004FEA5A071DE0281B401EC1B20A2000F04E
:103DB00040F8B9FBF0F00A21B0FBF1F201FB120070
:103DC00026B9691E8C4201DA78B101263030C2B2C0
:103DD00007FB0480C0B253465946FEF719F9641C2C
:103DE000E4B2AC42DFD3BDE8F09F07FB0480C0B271
:103DF000534620225946FEF70BF9F0E72DE9F04132
:103E000004460E461746984600250DE043463146C7
:103E10002046FEF7FDF80834E4B2782C02D90024DD
:103E2000B61CF6B26D1CEDB27A5D002AEED1BDE88B
:103E3000F0810346012000E05843491EC9B2FBD27D
:103E40007047000070B5FFF76DFB114D2968401AEF
:103E500014281CD3D5F80421002A18D00D4C291D94
:103E60006068801CFCF760F9B5F80401010A60681D
:103E7000017095F80411417000F5C8706060E16848
:103E8000884201D3044860600020C5F8040170BD79
:103E9000680C002014090020A80F00204FF4807245
:103EA00001490248FDF792BA9009002000F000088D
:103EB00070B504220A4B00210A480EE044185D5CEC
:103EC000A478AC4207D00649801CFCF72DF9BDE868
:103ED000704000F077B8491C89B29142EED370BDB2
:103EE000000000209009002030B50022074B1D1D66
:103EF00008E01C882406FCD5845C2C801C886406A1
:103F0000FCD5521C8A42F4D330BD0000004400406E
:103F10000246002000214006000E52F82130322BCC
:103F200001D940F00100491CC9B20829F3D37047F8
:103F30002DE9F0410446224D002605F1100768786E
:103F4000002802D0012814D037E02046FCF722F9DF
:103F500081B22046FFF7C8FF01206870FFF7E2FA40
:103F600068604FF48071381DFCF7F7F8C7F80461FA
:103F700023E0FFF7D7FA6968401AB4F86410884262
:103F80000FD2D7F804113846022916D304F1500194
:103F9000001DFCF7EDF880B16E702E720120BDE8B7
:103FA000F0816E70287A401CC0B22872B4F8661096
:103FB000884202D92E720220F1E70020EFE70000CC
:103FC000580C00204FF4807201490248FDF726BAD0
:103FD0009009002000F00008000000000000000030
:103FE000002F000000000700070000147F147F145A
:103FF00000242A7F2A1200626408132300364955E0
:10400000225000000503000000001C2241000000B7
:1040100041221C000014083E08140008083E08084D
:10402000000000A0600000080808080800006060A8
:104030000000002010080402003E5149453E0000E7
:10404000427F4000004261514946002141454B31C9
:10405000001814127F10002745454539003C4A4995
:104060004930000171090503003649494936000607
:104070004949291E0000363600000000563600006F
:1040800000081422410000141414141400004122EA
:10409000140800020151090600324959513E007CC2
:1040A0001211127C007F49494936003E41414122AC
:1040B000007F4141221C007F49494941007F090995
:1040C0000901003E4149497A007F0808087F000045
:1040D000417F4100002040413F01007F0814224100
:1040E000007F40404040007F020C027F007F0408B8
:1040F000107F003E4141413E007F09090906003E14
:104100004151215E007F091929460046494949313C
:104110000001017F0101003F4040403F001F20405F
:10412000201F003F4038403F00631408146300071D
:104130000870080700615149454300007F41410074
:1041400000552A552A55000041417F000004020114
:1041500002040040404040400000010204000020F2
:1041600054545478007F4844443800384444442030
:1041700000384444487F00385454541800087E09DD
:1041800001020018A4A4A47C007F080404780000A5
:10419000447D4000004080847D00007F1028440062
:1041A0000000417F4000007C04180478007C080473
:1041B000047800384444443800FC242424180018AF
:1041C000242418FC007C080404080048545454209B
:1041D00000043F444020003C4040207C001C204024
:1041E000201C003C4030403C004428102844001C67
:1041F000A0A0A07C004464544C441414141414145F
:1042000000000000000000000000000000000000AE
:10421000000000F800000000000000333000000043
:1042200000100C06100C060000000000000000004A
:1042300040C07840C0784000043F04043F040400BC
:10424000007088FC08300000001820FF211E0000CC
:10425000F008F000E018000000211C031E211E00E1
:1042600000F00888700000001E2123241927211067
:1042700010160E000000000000000000000000000A
:10428000000000E0180402000000000718204000B1
:1042900000020418E00000000040201807000000A1
:1042A000404080F0804040000202010F0102020005
:1042B000000000F0000000000101011F01010100E9
:1042C000000000000000000080B07000000000004E
:1042D00000000000000000000001010101010101D7
:1042E000000000000000000000303000000000006E
:1042F0000000000080601804006018060100000043
:1043000000E010080810E000000F102020100F003F
:10431000001010F8000000000020203F20200000C6
:10432000007008080888700000302824222130001E
:1043300000300888884830000018202020110E0026
:104340000000C02010F8000000070424243F2400CF
:1043500000F80888880808000019212020110E00A4
:1043600000E0108888180000000F112020110E00B6
:1043700000380808C83808000000003F00000000AE
:104380000070880808887000001C222121221C006F
:1043900000E010080810E0000000312222110F0098
:1043A000000000C0C000000000000030300000002D
:1043B000000000800000000000008060000000009D
:1043C00000008040201008000001020408102000B6
:1043D0004040404040404000040404040404040001
:1043E0000008102040800000002010080402010096
:1043F000007048080808F000000000303601000096
:10440000C030C828E810E0000718272423140B0048
:104410000000C038E0000000203C230202273820C2
:1044200008F8888888700000203F202020110E00A6
:10443000C03008080808380007182020201008009D
:1044400008F808080810E000203F202020100F0086
:1044500008F88888E8081000203F20202320180052
:1044600008F88888E8081000203F200003000000BA
:10447000C03008080838000007182020221E02005B
:1044800008F808000008F808203F210101213F201A
:10449000000808F8080800000020203F2020000045
:1044A00000000808F8080800C08080807F00000035
:1044B00008F888C028180800203F2001263820006E
:1044C00008F8080000000000203F202020203000D5
:1044D00008F8F800F8F80800203F003F003F2000EF
:1044E00008F830C00008F808203F200007183F00F7
:1044F000E01008080810E0000F10202020100F0026
:1045000008F808080808F000203F21010101000018
:10451000E01008080810E0000F18242438504F005D
:1045200008F8888888887000203F2000030C30201D
:1045300000708808080838000038202121221C005B
:10454000180808F8080818000000203F20000000A4
:1045500008F808000008F808001F202020201F008D
:104560000878880000C83808000007380E010000ED
:10457000F80800F80008F800033C0700073C0300B7
:10458000081868808068180820302C03032C30201D
:104590000838C800C83808000000203F200000008C
:1045A00010080808C83808002038262120201800E4
:1045B000000000FE020202000000007F40404000B8
:1045C000000C30C000000000000000010638C000F0
:1045D00000020202FE000000004040407F00000098
:1045E00000000402020204000000000000000000BD
:1045F00000000000000000008080808080808080BB
:1046000000020204000000000000000000000000A2
:1046100000008080808000000019242222223F2098
:1046200008F8008080000000003F112020110E00DB
:104630000000008080800000000E1120202011006A
:10464000000000808088F800000E112020103F201C
:104650000000808080800000001F222222221300A0
:10466000008080F0888888180020203F20200000EB
:104670000000808080808000006B949494936000A0
:1046800008F8008080800000203F210000203F20AB
:1046900000809898000000000020203F20200000AB
:1046A000000000809898000000C08080807F00009B
:1046B00008F8000080808000203F24022D30200078
:1046C000000808F8000000000020203F2020000023
:1046D0008080808080808000203F20003F20003F3D
:1046E0008080008080800000203F210000203F204B
:1046F0000000808080800000001F202020201F00FC
:10470000808000808000000080FFA12020110E002A
:104710000000008080808000000E112020A0FF801B
:10472000808080008080800020203F2120000100C8
:10473000000080808080800000332424242419001D
:10474000008080E0808000000000001F202000002A
:104750008080000000808000001F202020103F206B
:10476000808080000080808000010E3008060100FB
:1047700080800080008080800F300C030C300F00A0
:1047800000808000808080000020312E0E312000CB
:10479000808080000080808080818E7018060100FB
:1047A00000808080808080000021302C2221300019
:1047B00000000000807C020200000000003F40403A
:1047C00000000000FF00000000000000FF000000EB
:1047D0000002027C800000000040403F000000001A
:1047E00000060101020204040000000000000000B5
:1047F0000000A06058F650A828709090503010002B
:1048000000000000000000000000000000000000A8
:104810000000000000000000000000000000000098
:104820000000000000000000000000000000000088
:104830000000040201007E4A2A2AFE020000000055
:104840000000000000000000000000000000000068
:104850000000000000000000000000000000000058
:104860000000000000000000000000000000000048
:10487000000060504CC430007E90908840000000E2
:104880000000000000000000000000000000000028
:104890000000000000000000000000000000000018
:1048A0000000000000000000000000000000000008
:1048B0000000340B0B6639001F24444220300000F6
:1048C00000000000000000000000000000000000E8
:1048D00000000000000000000000000000000000D8
:1048E00000000000000000000000000000000000C8
:1048F0000000808810000014987078A880C0000024
:1049000000000000000000000000000000000000A7
:104910000000000000000000000000000000000097
:104920000000000000000000000000000000000087
:10493000000010384420110D023E4240403100007A
:104940000000000000000000000000000000000067
:104950000000000000000000000000000000000057
:104960000000000000000000000000000000000047
:104970000000101010D43C10F01E08C80800000001
:104980000000000000000000000000000000000027
:104990000000000000000000000000000000000017
:1049A0000000000000000000000000000000000007
:1049B000001008047F0000043F22414060203800BE
:1049C00000000000000000000000000000000000E7
:1049D00000000000000000000000000000000000D7
:1049E00000000000000000000000000000000000C7
:1049F0000000000000004858E424240000000000EB
:104A000000000000000000000000000000000000A6
:104A10000000000000000000000000000000000096
:104A20000000000000000000000000000000000086
:104A300000000202020241613F0101010101010087
:104A40000000000000000000000000000000000066
:104A50000000000000000000000000000000000056
:104A60000000000000000000000000000000000046
:104A700000808080909090404040FC2420E0000026
:104A80000000000000000000000000000000000026
:104A90000000000000000000000000000000000016
:104AA0000000000000000000000000000000000006
:104AB0000000080E054422140C0320201C030000F3
:104AC00000000000000000000000000000000000E6
:104AD00000000000000000000000000000000000D6
:104AE00000000000000000000000000000000000C6
:104AF000004040E0BC2000D05C5058AE6808000088
:104B000000000000000000000000000000000000A5
:104B10000000000000000000000000000000000095
:104B20000000000000000000000000000000000085
:104B30000804033F00010424150F0D152442000052
:104B40000000000000000000000000000000000065
:104B50000000000000000000000000000000000055
:104B60000000000000000000000000000000000045
:104B7000000000004040404CF020240400000000F1
:104B80000000000000000000000000000000000025
:104B90000000000000000000000000000000000015
:104BA0000000000000000000000000000000000005
:104BB000000000121216090900030C1820606000A2
:104BC00000000000000000000000000000000000E5
:104BD00000000000000000000000000000000000D5
:104BE00000000000000000000000000000000000C5
:104BF0000000887004044074C4349404FC00000075
:104C000000000000000000000000000000000000A4
:104C10000000000000000000000000000000000094
:104C20000000000000000000000000000000000084
:104C300000003F00090B07090907084C633C00000E
:104C40000000000000000000000000000000000064
:104C50000000000000000000000000000000000054
:104C60000000000000000000000000000000000044
:104C7000000080E01C040080907C54D0C000000044
:104C80000000000000000000000000000000000024
:104C90000000000000000000000000000000000014
:104CA0000000000000000000000000000000000004
:104CB0000001003F0000203E352B293F202020200E
:104CC00000000000000000000000000000000000E4
:104CD00000000000000000000000000000000000D4
:104CE00000000000000000000000000000000000C4
:104CF00000808084CC0800C03808BC44400000001C
:104D000000000000000000000000000000000000A3
:104D10000000000000000000000000000000000093
:104D20000000000000000000000000000000000083
:104D3000000000301F08002225191E21604040009D
:104D40000000000000000000000000000000000063
:104D50000000000000000000000000000000000053
:104D60000000000000000000000000000000000043
:104D70000000000018A898645C54545C0400000013
:104D80000000000000000000000000000000000023
:104D90000000000000000000000000000000000013
:104DA0000000000000000000000000000000000003
:104DB00000004040403F2B3727392720202020008B
:104DC00000000000000000000000000000000000E3
:104DD00000000000000000000000000000000000D3
:104DE00000000000000000000000000000000000C3
:104DF000008080808090F88888F888884040000093
:104E000000000000000000000000000000000000A2
:104E10000000000000000000000000000000000092
:104E20000000000000000000000000000000000082
:104E30000000002018070000003F000000000000F4
:104E40000000000000000000000000000000000062
:104E50000000000000000000000000000000000052
:104E60000000000000000000000000000000000042
:104E70000000000000F090909454681800000000BA
:104E80000000000000000000000000000000000022
:104E90000000000000000000000000000000000012
:104EA0000000000000000000000000000000000002
:104EB0000000201806013C242424243E04000000A5
:104EC00000000000000000000000000000000000E2
:104ED00000000000000000000000000000000000D2
:104EE00000000000000000000000000000000000C2
:104EF00000000000004858C02038260000000000D4
:104F000000000000000000000000000000000000A1
:104F10000000000000000000000000000000000091
:104F20000000000000000000000000000000000081
:104F30000000004222120D03050931616141400069
:104F40000000000000000000000000000000000061
:104F50000000000000000000000000000000000051
:104F60000000000000000000000000000000000041
:104F70000000C03004888080E8480804FC0000007D
:104F80000000000000000000000000000000000021
:104F90000000000000000000000000000000000011
:104FA0000000000000000000000000000000000001
:104FB00000003F00080402111F0000207F000000D5
:104FC00000000000000000000000000000000000E1
:104FD00000000000000000000000000000000000D1
:104FE00000000000000000000000000000000000C1
:104FF0000000C000FC201010202060E020200000F5
:1050000000000000000000000000000000000000A0
:105010000000000000000000000000000000000090
:105020000000000000000000000000000000000080
:105030000020100C03040C000020603F0000000062
:105040000000000000000000000000000000000060
:105050000000000000000000000000000000000050
:105060000000000000000000000000000000000040
:1050700000000000002000FC84A090988000000048
:105080000000000000000000000000000000000020
:105090000000000000000000000000000000000010
:1050A0000000000000000000000000000000000000
:1050B00000404021190D03001F604040406038004F
:1050C00000000000000000000000000000000000E0
:1050D00000000000000000000000000000000000D0
:1050E00000000000000000000000000000000000C0
:1050F00000000040FC2020F80828683C0800000060
:10510000000000000000000000000000000000009F
:10511000000000000000000000000000000000008F
:10512000000000000000000000000000000000007F
:10513000000404227F01007F22251917302020005F
:10514000000000000000000000000000000000005F
:10515000000000000000000000000000000000004F
:10516000000000000000000000000000000000003F
:10517000000020685C68DEB4946C38484840000049
:10518000000000000000000000000000000000001F
:10519000000000000000000000000000000000000F
:1051A00000000000000000000000000000000000FF
:1051B00000000202022A6A6D5D7311010101010003
:1051C00000000000000000000000000000000000DF
:1051D00000000000000000000000000000000000CF
:1051E00000000000000000000000000000000000BF
:1051F00000000000008080FC88804000000000006B
:10520000000000000000000000000000000000009E
:10521000000000000000000000000000000000008E
:10522000000000000000000000000000000000007E
:10523000000020201010101F10101010101010006F
:10524000000000000000000000000000000000005E
:10525000000000000000000000000000000000004E
:10526000000000000000000000000000000000003E
:10527000000000FC404020D8F886F8281400000008
:10528000000000000000000000000000000000001E
:10529000000000000000000000000000000000000E
:1052A00000000000000000000000000000000000FE
:1052B000000004052226162E572B0D1A262020004A
:1052C00000000000000000000000000000000000DE
:1052D00000000000000000000000000000000000CE
:1052E00000000000000000000000000000000000BE
:1052F0000000404040C040FC8040201800000000FA
:10530000000000000000000000000000000000009D
:10531000000000000000000000000000000000008D
:10532000000000000000000000000000000000007D
:10533000000008080601207F000102060C0400009E
:10534000000000000000000000000000000000005D
:10535000000000000000000000000000000000004D
:10536000000000000000000000000000000000003D
:1053700000008080486898ACA454B4840400000005
:10538000000000000000000000000000000000001D
:10539000000000000000000000000000000000000D
:1053A00000000000000000000000000000000000FD
:1053B00000002022120E02FC03040A1130202000FB
:1053C00000000000000000000000000000000000DD
:1053D00000000000000000000000000000000000CD
:1053E00000000000000000000000000000000000BD
:1053F000000030C848F808C02018A4E49C00000051
:10540000000000000000000000000000000000009C
:10541000000000000000000000000000000000008C
:10542000000000000000000000000000000000007C
:1054300000203801020B10000F1504030830000093
:10544000000000000000000000000000000000005C
:10545000000000000000000000000000000000004C
:10546000000000000000000000000000000000003C
:1054700000004008180008F8A868687418000000C8
:10548000000000000000000000000000000000001C
:10549000000000000000000000000000000000000C
:1054A00000000000000000000000000000000000FC
:1054B0000000300E22203E221E122E221F1200005B
:1054C00000000000000000000000000000000000DC
:1054D00000000000000000000000000000000000CC
:1054E00000000000000000000000000000000000BC
:1054F00000000000F090B0F056D8284800000000EE
:10550000000000000000000000000000000000009B
:10551000000000000000000000000000000000008B
:10552000000000000000000000000000000000007B
:105530000020100C4340402D131E226040404000CC
:10554000000000000000000000000000000000005B
:10555000000000000000000000000000000000004B
:10556000000000000000000000000000000000003B
:10557000000C120C00C07010080808081030000061
:10558000000000000000000000000000000000001B
:10559000000000000000000000000000000000000B
:1055A00000000000000000000000000000000000FB
:1055B00000000000000F183020202020301C0000C8
:1055C00000000000000000000000000000000000DB
:1055D00000000000000000000000000000000000CB
:1055E00000000000000000000000000000000000BB
:1055F00000000000F8088808F824F40C00000000FF
:10560000000000000000000000000000000000009A
:10561000000000000000000000000000000000008A
:10562000000000000000000000000000000000007A
:105630000020100E11080403060C07183020380053
:10564000000000000000000000000000000000005A
:10565000000000000000000000000000000000004A
:10566000000000000000000000000000000000003A
:1056700000000000807050D254A8B88880800000DC
:10568000000000000000000000000000000000001A
:10569000000000000000000000000000000000000A
:1056A00000000000000000000000000000000000FA
:1056B0000040300C1316287F01102A287F000000BC
:1056C00000000000000000000000000000000000DA
:1056D00000000000000000000000000000000000CA
:1056E00000000000000000000000000000000000BA
:1056F000200000000000000000000000000000008A
:105700000000000020000000000000000000000079
:1057100000000000000000007B2273656E736F7252
:1057200031223A25642C2273656E736F7232223AED
:1057300025642C2273656E736F7233223A25642CB4
:10574000092273656E736F7234223A25642C2273BA
:10575000656E736F7235223A25642C2273656E7301
:105760006F7236223A25642C092273656E736F724C
:1057700037223A25642C2273656E736F7238223A91
:1057800025642C2273656E736F7239223A25642C5E
:105790002273656E736F723130223A25647D00008A
:1057A000C0570008000000205C090000A4090008A0
:1057B000845800085C090020C4160000702B000803
:1057C0000126332041190423C84213803F2008C01A
:1057D0007944CDCCCC3D437A44021B1203125B07C3
:1057E000054C41540D0A03124F4B0C69D007036856
:1057F000080A432B43574D4F44453D317109196801
:105800000B495253D4091BD0080B3F4155544F4309
:105810004F4E4E3D3071091668024F200912684BF9
:105820001027D00E4149504D5558CC091AD059680F
:105830000E424F44453D3169091668024F20091C4C
:10584000D00D4253454E44CE21D80A0D0A4F4B0D80
:105850000A0D0A3E6801FF01FF01FF01FF01141854
:105860000934372E3130392E3803019684A24A0488
:10587000680D0102030406070809020406081069FE
:045880001400000010
:04000005080000ED02
:00000001FF
